{
  "contractName": "LendingHand",
  "abi": [
    {
      "inputs": [],
      "payable": false,
      "stateMutability": "nonpayable",
      "type": "constructor"
    },
    {
      "anonymous": false,
      "inputs": [
        {
          "indexed": false,
          "internalType": "uint256",
          "name": "id",
          "type": "uint256"
        },
        {
          "indexed": false,
          "internalType": "string",
          "name": "name",
          "type": "string"
        },
        {
          "indexed": false,
          "internalType": "string",
          "name": "description",
          "type": "string"
        },
        {
          "indexed": false,
          "internalType": "uint256",
          "name": "goal",
          "type": "uint256"
        },
        {
          "indexed": false,
          "internalType": "uint256",
          "name": "current",
          "type": "uint256"
        },
        {
          "indexed": false,
          "internalType": "address payable",
          "name": "owner",
          "type": "address"
        },
        {
          "indexed": false,
          "internalType": "bool",
          "name": "reachedGoal",
          "type": "bool"
        },
        {
          "indexed": false,
          "internalType": "address[1000]",
          "name": "donors",
          "type": "address[1000]"
        },
        {
          "indexed": false,
          "internalType": "uint256[1000]",
          "name": "donations",
          "type": "uint256[1000]"
        },
        {
          "indexed": false,
          "internalType": "uint256",
          "name": "numDonors",
          "type": "uint256"
        },
        {
          "indexed": false,
          "internalType": "string",
          "name": "image",
          "type": "string"
        }
      ],
      "name": "PostCreated",
      "type": "event"
    },
    {
      "anonymous": false,
      "inputs": [
        {
          "indexed": false,
          "internalType": "string",
          "name": "name",
          "type": "string"
        }
      ],
      "name": "PostDeleted",
      "type": "event"
    },
    {
      "anonymous": false,
      "inputs": [
        {
          "indexed": false,
          "internalType": "uint256",
          "name": "id",
          "type": "uint256"
        },
        {
          "indexed": false,
          "internalType": "string",
          "name": "name",
          "type": "string"
        },
        {
          "indexed": false,
          "internalType": "string",
          "name": "description",
          "type": "string"
        },
        {
          "indexed": false,
          "internalType": "uint256",
          "name": "goal",
          "type": "uint256"
        },
        {
          "indexed": false,
          "internalType": "uint256",
          "name": "current",
          "type": "uint256"
        },
        {
          "indexed": false,
          "internalType": "address payable",
          "name": "owner",
          "type": "address"
        },
        {
          "indexed": false,
          "internalType": "bool",
          "name": "reachedGoal",
          "type": "bool"
        },
        {
          "indexed": false,
          "internalType": "address[1000]",
          "name": "donors",
          "type": "address[1000]"
        },
        {
          "indexed": false,
          "internalType": "uint256[1000]",
          "name": "donations",
          "type": "uint256[1000]"
        },
        {
          "indexed": false,
          "internalType": "uint256",
          "name": "numDonors",
          "type": "uint256"
        },
        {
          "indexed": false,
          "internalType": "string",
          "name": "image",
          "type": "string"
        }
      ],
      "name": "PostDonated",
      "type": "event"
    },
    {
      "anonymous": false,
      "inputs": [
        {
          "indexed": false,
          "internalType": "string",
          "name": "name",
          "type": "string"
        },
        {
          "indexed": false,
          "internalType": "string",
          "name": "description",
          "type": "string"
        },
        {
          "indexed": false,
          "internalType": "uint256",
          "name": "goal",
          "type": "uint256"
        },
        {
          "indexed": false,
          "internalType": "string",
          "name": "image",
          "type": "string"
        }
      ],
      "name": "PostEdited",
      "type": "event"
    },
    {
      "constant": true,
      "inputs": [],
      "name": "name",
      "outputs": [
        {
          "internalType": "string",
          "name": "",
          "type": "string"
        }
      ],
      "payable": false,
      "stateMutability": "view",
      "type": "function"
    },
    {
      "constant": true,
      "inputs": [],
      "name": "postCount",
      "outputs": [
        {
          "internalType": "uint256",
          "name": "",
          "type": "uint256"
        }
      ],
      "payable": false,
      "stateMutability": "view",
      "type": "function"
    },
    {
      "constant": true,
      "inputs": [
        {
          "internalType": "uint256",
          "name": "",
          "type": "uint256"
        }
      ],
      "name": "posts",
      "outputs": [
        {
          "internalType": "uint256",
          "name": "id",
          "type": "uint256"
        },
        {
          "internalType": "string",
          "name": "name",
          "type": "string"
        },
        {
          "internalType": "string",
          "name": "description",
          "type": "string"
        },
        {
          "internalType": "uint256",
          "name": "goal",
          "type": "uint256"
        },
        {
          "internalType": "uint256",
          "name": "current",
          "type": "uint256"
        },
        {
          "internalType": "address payable",
          "name": "owner",
          "type": "address"
        },
        {
          "internalType": "bool",
          "name": "reachedGoal",
          "type": "bool"
        },
        {
          "internalType": "uint256",
          "name": "numDonors",
          "type": "uint256"
        },
        {
          "internalType": "string",
          "name": "image",
          "type": "string"
        }
      ],
      "payable": false,
      "stateMutability": "view",
      "type": "function"
    },
    {
      "constant": false,
      "inputs": [
        {
          "internalType": "string",
          "name": "_name",
          "type": "string"
        },
        {
          "internalType": "string",
          "name": "_description",
          "type": "string"
        },
        {
          "internalType": "uint256",
          "name": "_goal",
          "type": "uint256"
        },
        {
          "internalType": "string",
          "name": "_image",
          "type": "string"
        }
      ],
      "name": "createPost",
      "outputs": [],
      "payable": false,
      "stateMutability": "nonpayable",
      "type": "function"
    },
    {
      "constant": false,
      "inputs": [
        {
          "internalType": "uint256",
          "name": "_id",
          "type": "uint256"
        },
        {
          "internalType": "string",
          "name": "_name",
          "type": "string"
        },
        {
          "internalType": "string",
          "name": "_description",
          "type": "string"
        },
        {
          "internalType": "uint256",
          "name": "_goal",
          "type": "uint256"
        },
        {
          "internalType": "string",
          "name": "_image",
          "type": "string"
        }
      ],
      "name": "editPost",
      "outputs": [],
      "payable": false,
      "stateMutability": "nonpayable",
      "type": "function"
    },
    {
      "constant": false,
      "inputs": [
        {
          "internalType": "uint256",
          "name": "_id",
          "type": "uint256"
        }
      ],
      "name": "deletePost",
      "outputs": [],
      "payable": false,
      "stateMutability": "nonpayable",
      "type": "function"
    },
    {
      "constant": false,
      "inputs": [
        {
          "internalType": "uint256",
          "name": "_id",
          "type": "uint256"
        }
      ],
      "name": "donateToPost",
      "outputs": [],
      "payable": true,
      "stateMutability": "payable",
      "type": "function"
    }
  ],
  "bytecode": "0x6080604052600080553480156200001557600080fd5b506040518060400160405280600c81526020017f4c656e64696e672048616e64000000000000000000000000000000000000000081525060029080519060200190620000639291906200006a565b5062000119565b828054600181600116156101000203166002900490600052602060002090601f016020900481019282601f10620000ad57805160ff1916838001178555620000de565b82800160010185558215620000de579182015b82811115620000dd578251825591602001919060010190620000c0565b5b509050620000ed9190620000f1565b5090565b6200011691905b8082111562000112576000816000905550600101620000f8565b5090565b90565b61244480620001296000396000f3fe6080604052600436106100705760003560e01c806317906c2e1161004e57806317906c2e1461032657806387136f77146103515780639694cf1914610551578063b68603b61461075b57610070565b806306fdde0314610075578063094cd5ee146101055780630b1e7f8314610140575b600080fd5b34801561008157600080fd5b5061008a610789565b6040518080602001828103825283818151815260200191508051906020019080838360005b838110156100ca5780820151818401526020810190506100af565b50505050905090810190601f1680156100f75780820380516001836020036101000a031916815260200191505b509250505060405180910390f35b34801561011157600080fd5b5061013e6004803603602081101561012857600080fd5b8101908080359060200190929190505050610827565b005b34801561014c57600080fd5b506101796004803603602081101561016357600080fd5b8101908080359060200190929190505050610ca9565b604051808a815260200180602001806020018981526020018881526020018773ffffffffffffffffffffffffffffffffffffffff1673ffffffffffffffffffffffffffffffffffffffff168152602001861515151581526020018581526020018060200184810384528c818151815260200191508051906020019080838360005b838110156102155780820151818401526020810190506101fa565b50505050905090810190601f1680156102425780820380516001836020036101000a031916815260200191505b5084810383528b818151815260200191508051906020019080838360005b8381101561027b578082015181840152602081019050610260565b50505050905090810190601f1680156102a85780820380516001836020036101000a031916815260200191505b50848103825285818151815260200191508051906020019080838360005b838110156102e15780820151818401526020810190506102c6565b50505050905090810190601f16801561030e5780820380516001836020036101000a031916815260200191505b509c5050505050505050505050505060405180910390f35b34801561033257600080fd5b5061033b610eee565b6040518082815260200191505060405180910390f35b34801561035d57600080fd5b5061054f6004803603608081101561037457600080fd5b810190808035906020019064010000000081111561039157600080fd5b8201836020820111156103a357600080fd5b803590602001918460018302840111640100000000831117156103c557600080fd5b91908080601f016020809104026020016040519081016040528093929190818152602001838380828437600081840152601f19601f8201169050808301925050505050505091929192908035906020019064010000000081111561042857600080fd5b82018360208201111561043a57600080fd5b8035906020019184600183028401116401000000008311171561045c57600080fd5b91908080601f016020809104026020016040519081016040528093929190818152602001838380828437600081840152601f19601f82011690508083019250505050505050919291929080359060200190929190803590602001906401000000008111156104c957600080fd5b8201836020820111156104db57600080fd5b803590602001918460018302840111640100000000831117156104fd57600080fd5b91908080601f016020809104026020016040519081016040528093929190818152602001838380828437600081840152601f19601f820116905080830192505050505050509192919290505050610ef4565b005b34801561055d57600080fd5b50610759600480360360a081101561057457600080fd5b81019080803590602001909291908035906020019064010000000081111561059b57600080fd5b8201836020820111156105ad57600080fd5b803590602001918460018302840111640100000000831117156105cf57600080fd5b91908080601f016020809104026020016040519081016040528093929190818152602001838380828437600081840152601f19601f8201169050808301925050505050505091929192908035906020019064010000000081111561063257600080fd5b82018360208201111561064457600080fd5b8035906020019184600183028401116401000000008311171561066657600080fd5b91908080601f016020809104026020016040519081016040528093929190818152602001838380828437600081840152601f19601f82011690508083019250505050505050919291929080359060200190929190803590602001906401000000008111156106d357600080fd5b8201836020820111156106e557600080fd5b8035906020019184600183028401116401000000008311171561070757600080fd5b91908080601f016020809104026020016040519081016040528093929190818152602001838380828437600081840152601f19601f820116905080830192505050505050509192919290505050611320565b005b6107876004803603602081101561077157600080fd5b81019080803590602001909291905050506118cc565b005b60028054600181600116156101000203166002900480601f01602080910402602001604051908101604052809291908181526020018280546001816001161561010002031660029004801561081f5780601f106107f45761010080835404028352916020019161081f565b820191906000526020600020905b81548152906001019060200180831161080257829003601f168201915b505050505081565b60008111801561083957506000548111155b61084257600080fd5b61084a61215a565b600160008381526020019081526020016000206040518061016001604052908160008201548152602001600182018054600181600116156101000203166002900480601f01602080910402602001604051908101604052809291908181526020018280546001816001161561010002031660029004801561090c5780601f106108e15761010080835404028352916020019161090c565b820191906000526020600020905b8154815290600101906020018083116108ef57829003601f168201915b50505050508152602001600282018054600181600116156101000203166002900480601f0160208091040260200160405190810160405280929190818152602001828054600181600116156101000203166002900480156109ae5780601f10610983576101008083540402835291602001916109ae565b820191906000526020600020905b81548152906001019060200180831161099157829003601f168201915b5050505050815260200160038201548152602001600482015481526020016005820160009054906101000a900473ffffffffffffffffffffffffffffffffffffffff1673ffffffffffffffffffffffffffffffffffffffff1673ffffffffffffffffffffffffffffffffffffffff1681526020016005820160149054906101000a900460ff16151515158152602001600682016103e88060200260405190810160405280929190826103e88015610ab0576020028201915b8160009054906101000a900473ffffffffffffffffffffffffffffffffffffffff1673ffffffffffffffffffffffffffffffffffffffff1681526020019060010190808311610a66575b505050505081526020016103ee82016103e88060200260405190810160405280929190826103e88015610af8576020028201915b815481526020019060010190808311610ae4575b505050505081526020016107d682015481526020016107d782018054600181600116156101000203166002900480601f016020809104026020016040519081016040528092919081815260200182805460018160011615610100020316600290048015610ba65780601f10610b7b57610100808354040283529160200191610ba6565b820191906000526020600020905b815481529060010190602001808311610b8957829003601f168201915b50505050508152505090503373ffffffffffffffffffffffffffffffffffffffff168160a0015173ffffffffffffffffffffffffffffffffffffffff1614610bed57600080fd5b6040518060200160405280600081525081602001819052507fd113a09d1a49b13db24cc6a493bfca91708e917fa82a7a285d9f6878ac99e9fe81602001516040518080602001828103825283818151815260200191508051906020019080838360005b83811015610c6b578082015181840152602081019050610c50565b50505050905090810190601f168015610c985780820380516001836020036101000a031916815260200191505b509250505060405180910390a15050565b6001602052806000526040600020600091509050806000015490806001018054600181600116156101000203166002900480601f016020809104026020016040519081016040528092919081815260200182805460018160011615610100020316600290048015610d5b5780601f10610d3057610100808354040283529160200191610d5b565b820191906000526020600020905b815481529060010190602001808311610d3e57829003601f168201915b505050505090806002018054600181600116156101000203166002900480601f016020809104026020016040519081016040528092919081815260200182805460018160011615610100020316600290048015610df95780601f10610dce57610100808354040283529160200191610df9565b820191906000526020600020905b815481529060010190602001808311610ddc57829003601f168201915b5050505050908060030154908060040154908060050160009054906101000a900473ffffffffffffffffffffffffffffffffffffffff16908060050160149054906101000a900460ff1690806107d6015490806107d7018054600181600116156101000203166002900480601f016020809104026020016040519081016040528092919081815260200182805460018160011615610100020316600290048015610ee45780601f10610eb957610100808354040283529160200191610ee4565b820191906000526020600020905b815481529060010190602001808311610ec757829003601f168201915b5050505050905089565b60005481565b6000845111610f0257600080fd5b6000835111610f1057600080fd5b60008211610f1d57600080fd5b610f256121d8565b610f2d6121fc565b600160008082825401925050819055506040518061016001604052806000548152602001878152602001868152602001858152602001600081526020013373ffffffffffffffffffffffffffffffffffffffff16815260200160001515815260200183815260200182815260200160008152602001848152506001600080548152602001908152602001600020600082015181600001556020820151816001019080519060200190610fe0929190612220565b506040820151816002019080519060200190610ffd929190612220565b50606082015181600301556080820151816004015560a08201518160050160006101000a81548173ffffffffffffffffffffffffffffffffffffffff021916908373ffffffffffffffffffffffffffffffffffffffff16021790555060c08201518160050160146101000a81548160ff02191690831515021790555060e082015181600601906103e86110919291906122a0565b50610100820151816103ee01906103e86110ac92919061231e565b50610120820151816107d60155610140820151816107d70190805190602001906110d7929190612220565b509050507fa4589189123ce0c44d227bbdbdb1b4f14757d16984ceb3e94d7a8d931405fd4e6000548787876000336000898960008d604051808c815260200180602001806020018b81526020018a81526020018973ffffffffffffffffffffffffffffffffffffffff1673ffffffffffffffffffffffffffffffffffffffff16815260200188151515158152602001876103e860200280838360005b8381101561118e578082015181840152602081019050611173565b50505050905001866103e860200280838360005b838110156111bd5780820151818401526020810190506111a2565b505050509050018581526020018060200184810384528e818151815260200191508051906020019080838360005b838110156112065780820151818401526020810190506111eb565b50505050905090810190601f1680156112335780820380516001836020036101000a031916815260200191505b5084810383528d818151815260200191508051906020019080838360005b8381101561126c578082015181840152602081019050611251565b50505050905090810190601f1680156112995780820380516001836020036101000a031916815260200191505b50848103825285818151815260200191508051906020019080838360005b838110156112d25780820151818401526020810190506112b7565b50505050905090810190601f1680156112ff5780820380516001836020036101000a031916815260200191505b509e50505050505050505050505050505060405180910390a1505050505050565b60008511801561133257506000548511155b61133b57600080fd5b600084511161134957600080fd5b600083511161135757600080fd5b6000821161136457600080fd5b61136c61215a565b600160008781526020019081526020016000206040518061016001604052908160008201548152602001600182018054600181600116156101000203166002900480601f01602080910402602001604051908101604052809291908181526020018280546001816001161561010002031660029004801561142e5780601f106114035761010080835404028352916020019161142e565b820191906000526020600020905b81548152906001019060200180831161141157829003601f168201915b50505050508152602001600282018054600181600116156101000203166002900480601f0160208091040260200160405190810160405280929190818152602001828054600181600116156101000203166002900480156114d05780601f106114a5576101008083540402835291602001916114d0565b820191906000526020600020905b8154815290600101906020018083116114b357829003601f168201915b5050505050815260200160038201548152602001600482015481526020016005820160009054906101000a900473ffffffffffffffffffffffffffffffffffffffff1673ffffffffffffffffffffffffffffffffffffffff1673ffffffffffffffffffffffffffffffffffffffff1681526020016005820160149054906101000a900460ff16151515158152602001600682016103e88060200260405190810160405280929190826103e880156115d2576020028201915b8160009054906101000a900473ffffffffffffffffffffffffffffffffffffffff1673ffffffffffffffffffffffffffffffffffffffff1681526020019060010190808311611588575b505050505081526020016103ee82016103e88060200260405190810160405280929190826103e8801561161a576020028201915b815481526020019060010190808311611606575b505050505081526020016107d682015481526020016107d782018054600181600116156101000203166002900480601f0160208091040260200160405190810160405280929190818152602001828054600181600116156101000203166002900480156116c85780601f1061169d576101008083540402835291602001916116c8565b820191906000526020600020905b8154815290600101906020018083116116ab57829003601f168201915b50505050508152505090503373ffffffffffffffffffffffffffffffffffffffff168160a0015173ffffffffffffffffffffffffffffffffffffffff161461170f57600080fd5b84816020018190525083816040018190525082816060018181525050818161014001819052507ff63152efc0cfbaea746d4dd82195ea1801d98fb559507311293c46d7fee6d70281602001518260400151836060015184610140015160405180806020018060200185815260200180602001848103845288818151815260200191508051906020019080838360005b838110156117b957808201518184015260208101905061179e565b50505050905090810190601f1680156117e65780820380516001836020036101000a031916815260200191505b50848103835287818151815260200191508051906020019080838360005b8381101561181f578082015181840152602081019050611804565b50505050905090810190601f16801561184c5780820380516001836020036101000a031916815260200191505b50848103825285818151815260200191508051906020019080838360005b8381101561188557808201518184015260208101905061186a565b50505050905090810190601f1680156118b25780820380516001836020036101000a031916815260200191505b5097505050505050505060405180910390a1505050505050565b6118d461215a565b600160008381526020019081526020016000206040518061016001604052908160008201548152602001600182018054600181600116156101000203166002900480601f0160208091040260200160405190810160405280929190818152602001828054600181600116156101000203166002900480156119965780601f1061196b57610100808354040283529160200191611996565b820191906000526020600020905b81548152906001019060200180831161197957829003601f168201915b50505050508152602001600282018054600181600116156101000203166002900480601f016020809104026020016040519081016040528092919081815260200182805460018160011615610100020316600290048015611a385780601f10611a0d57610100808354040283529160200191611a38565b820191906000526020600020905b815481529060010190602001808311611a1b57829003601f168201915b5050505050815260200160038201548152602001600482015481526020016005820160009054906101000a900473ffffffffffffffffffffffffffffffffffffffff1673ffffffffffffffffffffffffffffffffffffffff1673ffffffffffffffffffffffffffffffffffffffff1681526020016005820160149054906101000a900460ff16151515158152602001600682016103e88060200260405190810160405280929190826103e88015611b3a576020028201915b8160009054906101000a900473ffffffffffffffffffffffffffffffffffffffff1673ffffffffffffffffffffffffffffffffffffffff1681526020019060010190808311611af0575b505050505081526020016103ee82016103e88060200260405190810160405280929190826103e88015611b82576020028201915b815481526020019060010190808311611b6e575b505050505081526020016107d682015481526020016107d782018054600181600116156101000203166002900480601f016020809104026020016040519081016040528092919081815260200182805460018160011615610100020316600290048015611c305780601f10611c0557610100808354040283529160200191611c30565b820191906000526020600020905b815481529060010190602001808311611c1357829003601f168201915b505050505081525050905060008160a001519050600083118015611c5657506000548311155b611c5f57600080fd5b6000341015611c6d57600080fd5b8160c0015115611c7c57600080fd5b3373ffffffffffffffffffffffffffffffffffffffff168173ffffffffffffffffffffffffffffffffffffffff161415611cb557600080fd5b6103e882610120015110611cc857600080fd5b338260e001518361012001516103e88110611cdf57fe5b602002019073ffffffffffffffffffffffffffffffffffffffff16908173ffffffffffffffffffffffffffffffffffffffff1681525050348261010001518361012001516103e88110611d2e57fe5b602002018181525050600182610120018181510191508181525050348260800181815101915081815250508160600151826080015110611d7a5760018260c00190151590811515815250505b8160016000858152602001908152602001600020600082015181600001556020820151816001019080519060200190611db4929190612220565b506040820151816002019080519060200190611dd1929190612220565b50606082015181600301556080820151816004015560a08201518160050160006101000a81548173ffffffffffffffffffffffffffffffffffffffff021916908373ffffffffffffffffffffffffffffffffffffffff16021790555060c08201518160050160146101000a81548160ff02191690831515021790555060e082015181600601906103e8611e659291906122a0565b50610100820151816103ee01906103e8611e8092919061231e565b50610120820151816107d60155610140820151816107d7019080519060200190611eab929190612220565b509050508073ffffffffffffffffffffffffffffffffffffffff166108fc349081150290604051600060405180830381858888f19350505050158015611ef5573d6000803e3d6000fd5b507fd412bf7a658451b4e1d4204e20e51db362fe2474609b09053ebb0165f2c632f9838360200151846040015185606001518660800151868860c001518960e001518a61010001518b61012001518c6101400151604051808c815260200180602001806020018b81526020018a81526020018973ffffffffffffffffffffffffffffffffffffffff1673ffffffffffffffffffffffffffffffffffffffff16815260200188151515158152602001876103e860200280838360005b83811015611fcb578082015181840152602081019050611fb0565b50505050905001866103e860200280838360005b83811015611ffa578082015181840152602081019050611fdf565b505050509050018581526020018060200184810384528e818151815260200191508051906020019080838360005b83811015612043578082015181840152602081019050612028565b50505050905090810190601f1680156120705780820380516001836020036101000a031916815260200191505b5084810383528d818151815260200191508051906020019080838360005b838110156120a957808201518184015260208101905061208e565b50505050905090810190601f1680156120d65780820380516001836020036101000a031916815260200191505b50848103825285818151815260200191508051906020019080838360005b8381101561210f5780820151818401526020810190506120f4565b50505050905090810190601f16801561213c5780820380516001836020036101000a031916815260200191505b509e50505050505050505050505050505060405180910390a1505050565b6040518061016001604052806000815260200160608152602001606081526020016000815260200160008152602001600073ffffffffffffffffffffffffffffffffffffffff1681526020016000151581526020016121b761235f565b81526020016121c4612383565b815260200160008152602001606081525090565b60405180617d0001604052806103e890602082028038833980820191505090505090565b60405180617d0001604052806103e890602082028038833980820191505090505090565b828054600181600116156101000203166002900490600052602060002090601f016020900481019282601f1061226157805160ff191683800117855561228f565b8280016001018555821561228f579182015b8281111561228e578251825591602001919060010190612273565b5b50905061229c91906123a7565b5090565b826103e8810192821561230d579160200282015b8281111561230c5782518260006101000a81548173ffffffffffffffffffffffffffffffffffffffff021916908373ffffffffffffffffffffffffffffffffffffffff160217905550916020019190600101906122b4565b5b50905061231a91906123cc565b5090565b826103e8810192821561234e579160200282015b8281111561234d578251825591602001919060010190612332565b5b50905061235b91906123a7565b5090565b60405180617d0001604052806103e890602082028038833980820191505090505090565b60405180617d0001604052806103e890602082028038833980820191505090505090565b6123c991905b808211156123c55760008160009055506001016123ad565b5090565b90565b61240c91905b8082111561240857600081816101000a81549073ffffffffffffffffffffffffffffffffffffffff0219169055506001016123d2565b5090565b9056fea265627a7a723158206aa9120fd7e3179593e36412c0f2238a04e857f1c771bc6eb9077d06b0fb1b4464736f6c63430005110032",
  "source": "// SPDX-License-Identifier: MIT\npragma solidity >=0.4.22 <0.7.0;\n\ncontract LendingHand {\n   uint public postCount = 0;\n   mapping(uint => Post) public posts;\n   string public name;\n\n\n   struct Post {\n      uint id;\n      string name;\n      string description;\n      uint goal;\n      uint current;\n      address payable owner;\n      bool reachedGoal;\n      address[1000] donors;\n      uint[1000] donations;\n      uint numDonors;\n      string image;\n   }\n\n\n    event PostCreated(\n      uint id,\n      string name,\n      string description,\n      uint goal,\n      uint current,\n      address payable owner,\n      bool reachedGoal,\n      address[1000] donors,\n      uint[1000] donations,\n      uint numDonors,\n      string image\n    );\n\n    event PostDonated(\n      uint id,\n      string name,\n      string description,\n      uint goal,\n      uint current,\n      address payable owner,\n      bool reachedGoal,\n      address[1000] donors,\n      uint[1000] donations,\n      uint numDonors,\n      string image\n    );\n\n    event PostDeleted(\n      string name\n    );\n\n    event PostEdited(\n      string name,\n      string description,\n      uint goal,\n      string image\n    );\n\n    constructor() public {\n    name = \"Lending Hand\";\n  }\n\n\n   function createPost(string memory _name, string memory _description, uint _goal, string memory _image) public {\n        //Make sure parameters are correct\n        //Create the product\n        require(bytes(_name).length > 0);\n        require(bytes(_description).length > 0);\n        require(_goal > 0);\n\n\n\n        address[1000] memory _donors;\n        uint[1000] memory _donations;\n        //Increment Product Count\n        postCount += 1;\n        posts[postCount] = Post(postCount, _name, _description, _goal, 0, msg.sender, false, _donors, _donations, 0, _image); //msg.sender is person who called the function\n        //Trigger an event (debugging purposes)\n        emit PostCreated(postCount, _name, _description, _goal, 0, msg.sender, false, _donors, _donations, 0, _image);\n   }\n\n   function editPost(uint _id, string memory _name, string memory _description, uint _goal, string memory _image) public {\n      require(_id > 0 && _id <= postCount);\n      require(bytes(_name).length > 0);\n      require(bytes(_description).length > 0);\n      require(_goal > 0);\n\n      \n      Post memory _post = posts[_id];\n\n      require(_post.owner == msg.sender);\n\n      _post.name = _name;\n      _post.description = _description;\n      _post.goal = _goal;\n      _post.image = _image;\n\n      emit PostEdited(_post.name, _post.description, _post.goal, _post.image);\n\n\n\n   }\n\n   function deletePost(uint _id) public {\n      require(_id > 0 && _id <= postCount);\n      Post memory _post = posts[_id];\n\n      require(_post.owner == msg.sender);\n\n      _post.name = \"\";\n\n      emit PostDeleted(_post.name);\n   }\n\n\n\n   function donateToPost(uint _id) public payable {\n    //Fetch the product\n    Post memory _post = posts[_id];\n    //Fetch the owner\n    address payable _donee = _post.owner;\n    //Make sure the product is valid\n    require(_id > 0 && _id <= postCount);\n    //Require that there is enough Ether in the transaction\n    require(msg.value >= 0);\n\n    require(!_post.reachedGoal);\n\n    require(_donee != msg.sender);\n\n    require(_post.numDonors < 1000);\n\n\n\n    //update the post statistics\n    _post.donors[_post.numDonors] = msg.sender;\n    _post.donations[_post.numDonors] = msg.value;\n\n    _post.numDonors += 1;\n\n    _post.current += msg.value;\n\n    if (_post.current >= _post.goal) {\n        _post.reachedGoal = true;\n    }\n\n    // Update the product\n    posts[_id] = _post;\n    //Pay the seller sending them Ether\n\n\n    _donee.transfer(msg.value);\n    //Trigger an event\n    emit PostDonated(_id, _post.name, _post.description, _post.goal, _post.current, _donee, _post.reachedGoal, _post.donors, _post.donations, _post.numDonors, _post.image);\n   }\n\n}",
  "sourcePath": "/Users/amit/FunProjects/LendingHand/backend/src/contracts/LendingHand.sol",
  "compiler": {
    "name": "solc",
    "version": "0.5.17+commit.d19bba13.Emscripten.clang"
  },
  "schemaVersion": "3.4.14",
  "updatedAt": "2023-08-11T04:02:58.442Z",
  "devdoc": {
    "methods": {}
  },
  "userdoc": {
    "methods": {}
  }
}